{
	"_format": "hh-sol-artifact-1",
	"contractName": "Formsify",
	"sourceName": "contracts/Formsify.sol",
	"abi": [
		{
			"inputs": [
				{
					"internalType": "uint256",
					"name": "_maxFills",
					"type": "uint256"
				},
				{
					"internalType": "uint256",
					"name": "_startTime",
					"type": "uint256"
				},
				{
					"internalType": "uint256",
					"name": "_endTime",
					"type": "uint256"
				},
				{
					"internalType": "uint256",
					"name": "_allowedTotalFills",
					"type": "uint256"
				},
				{
					"internalType": "string",
					"name": "_formHead",
					"type": "string"
				},
				{
					"internalType": "string",
					"name": "_fields",
					"type": "string"
				}
			],
			"stateMutability": "nonpayable",
			"type": "constructor"
		},
		{
			"inputs": [
				{
					"internalType": "string",
					"name": "_fillData",
					"type": "string"
				}
			],
			"name": "addRecord",
			"outputs": [],
			"stateMutability": "nonpayable",
			"type": "function"
		},
		{
			"inputs": [],
			"name": "allowedTotalFills",
			"outputs": [
				{
					"internalType": "uint256",
					"name": "",
					"type": "uint256"
				}
			],
			"stateMutability": "view",
			"type": "function"
		},
		{
			"inputs": [],
			"name": "endTime",
			"outputs": [
				{
					"internalType": "uint256",
					"name": "",
					"type": "uint256"
				}
			],
			"stateMutability": "view",
			"type": "function"
		},
		{
			"inputs": [],
			"name": "fields",
			"outputs": [
				{
					"internalType": "string",
					"name": "",
					"type": "string"
				}
			],
			"stateMutability": "view",
			"type": "function"
		},
		{
			"inputs": [],
			"name": "fills",
			"outputs": [
				{
					"internalType": "uint256",
					"name": "",
					"type": "uint256"
				}
			],
			"stateMutability": "view",
			"type": "function"
		},
		{
			"inputs": [],
			"name": "formHead",
			"outputs": [
				{
					"internalType": "string",
					"name": "",
					"type": "string"
				}
			],
			"stateMutability": "view",
			"type": "function"
		},
		{
			"inputs": [],
			"name": "getParameters",
			"outputs": [
				{
					"internalType": "address",
					"name": "",
					"type": "address"
				},
				{
					"internalType": "uint256",
					"name": "",
					"type": "uint256"
				},
				{
					"internalType": "uint256",
					"name": "",
					"type": "uint256"
				},
				{
					"internalType": "uint256",
					"name": "",
					"type": "uint256"
				},
				{
					"internalType": "uint256",
					"name": "",
					"type": "uint256"
				},
				{
					"internalType": "uint256",
					"name": "",
					"type": "uint256"
				},
				{
					"internalType": "string",
					"name": "",
					"type": "string"
				},
				{
					"internalType": "string",
					"name": "",
					"type": "string"
				}
			],
			"stateMutability": "view",
			"type": "function"
		},
		{
			"inputs": [],
			"name": "getRecords",
			"outputs": [
				{
					"components": [
						{
							"internalType": "uint256",
							"name": "fillId",
							"type": "uint256"
						},
						{
							"internalType": "uint256",
							"name": "fillTimestamp",
							"type": "uint256"
						},
						{
							"internalType": "address",
							"name": "fillAddress",
							"type": "address"
						},
						{
							"internalType": "string",
							"name": "fillData",
							"type": "string"
						}
					],
					"internalType": "struct Formsify.record[]",
					"name": "",
					"type": "tuple[]"
				}
			],
			"stateMutability": "view",
			"type": "function"
		},
		{
			"inputs": [],
			"name": "maxFills",
			"outputs": [
				{
					"internalType": "uint256",
					"name": "",
					"type": "uint256"
				}
			],
			"stateMutability": "view",
			"type": "function"
		},
		{
			"inputs": [],
			"name": "owner",
			"outputs": [
				{
					"internalType": "address",
					"name": "",
					"type": "address"
				}
			],
			"stateMutability": "view",
			"type": "function"
		},
		{
			"inputs": [
				{
					"internalType": "uint256",
					"name": "",
					"type": "uint256"
				}
			],
			"name": "records",
			"outputs": [
				{
					"internalType": "uint256",
					"name": "fillId",
					"type": "uint256"
				},
				{
					"internalType": "uint256",
					"name": "fillTimestamp",
					"type": "uint256"
				},
				{
					"internalType": "address",
					"name": "fillAddress",
					"type": "address"
				},
				{
					"internalType": "string",
					"name": "fillData",
					"type": "string"
				}
			],
			"stateMutability": "view",
			"type": "function"
		},
		{
			"inputs": [],
			"name": "startTime",
			"outputs": [
				{
					"internalType": "uint256",
					"name": "",
					"type": "uint256"
				}
			],
			"stateMutability": "view",
			"type": "function"
		}
	],
	"bytecode": "0x60806040523480156200001157600080fd5b506040516200186038038062001860833981810160405281019062000037919062000212565b336000806101000a81548173ffffffffffffffffffffffffffffffffffffffff021916908373ffffffffffffffffffffffffffffffffffffffff1602179055506000600181905550856002819055508460038190555083600481905550826005819055508160069080519060200190620000b3929190620000d9565b508060079080519060200190620000cc929190620000d9565b505050505050506200046e565b828054620000e79062000379565b90600052602060002090601f0160209004810192826200010b576000855562000157565b82601f106200012657805160ff191683800117855562000157565b8280016001018555821562000157579182015b828111156200015657825182559160200191906001019062000139565b5b5090506200016691906200016a565b5090565b5b80821115620001855760008160009055506001016200016b565b5090565b6000620001a06200019a8462000303565b620002da565b905082815260208101848484011115620001b957600080fd5b620001c684828562000343565b509392505050565b600082601f830112620001e057600080fd5b8151620001f284826020860162000189565b91505092915050565b6000815190506200020c8162000454565b92915050565b60008060008060008060c087890312156200022c57600080fd5b60006200023c89828a01620001fb565b96505060206200024f89828a01620001fb565b95505060406200026289828a01620001fb565b94505060606200027589828a01620001fb565b935050608087015167ffffffffffffffff8111156200029357600080fd5b620002a189828a01620001ce565b92505060a087015167ffffffffffffffff811115620002bf57600080fd5b620002cd89828a01620001ce565b9150509295509295509295565b6000620002e6620002f9565b9050620002f48282620003af565b919050565b6000604051905090565b600067ffffffffffffffff82111562000321576200032062000414565b5b6200032c8262000443565b9050602081019050919050565b6000819050919050565b60005b838110156200036357808201518184015260208101905062000346565b8381111562000373576000848401525b50505050565b600060028204905060018216806200039257607f821691505b60208210811415620003a957620003a8620003e5565b5b50919050565b620003ba8262000443565b810181811067ffffffffffffffff82111715620003dc57620003db62000414565b5b80604052505050565b7f4e487b7100000000000000000000000000000000000000000000000000000000600052602260045260246000fd5b7f4e487b7100000000000000000000000000000000000000000000000000000000600052604160045260246000fd5b6000601f19601f8301169050919050565b6200045f8162000339565b81146200046b57600080fd5b50565b6113e2806200047e6000396000f3fe608060405234801561001057600080fd5b50600436106100b45760003560e01c80638eff3c29116100715780638eff3c2914610182578063a5ea11da146101a0578063ba73ade2146101c5578063d6a4c169146101e3578063d81aa8c414610201578063edd5b0f71461021d576100b4565b806329c3a6d0146100b95780633197cbb6146100d757806334461067146100f55780636be695491461012857806378e97925146101465780638da5cb5b14610164575b600080fd5b6100c161023b565b6040516100ce9190610f3e565b60405180910390f35b6100df6102c9565b6040516100ec9190610fe0565b60405180910390f35b61010f600480360381019061010a9190610c26565b6102cf565b60405161011f9493929190610ffb565b60405180910390f35b6101306103b7565b60405161013d9190610fe0565b60405180910390f35b61014e6103bd565b60405161015b9190610fe0565b60405180910390f35b61016c6103c3565b6040516101799190610e75565b60405180910390f35b61018a6103e7565b6040516101979190610f1c565b60405180910390f35b6101a8610542565b6040516101bc989796959493929190610e90565b60405180910390f35b6101cd6106b4565b6040516101da9190610fe0565b60405180910390f35b6101eb6106ba565b6040516101f89190610fe0565b60405180910390f35b61021b60048036038101906102169190610be5565b6106c0565b005b6102256109f9565b6040516102329190610f3e565b60405180910390f35b6007805461024890611181565b80601f016020809104026020016040519081016040528092919081815260200182805461027490611181565b80156102c15780601f10610296576101008083540402835291602001916102c1565b820191906000526020600020905b8154815290600101906020018083116102a457829003601f168201915b505050505081565b60045481565b600981815481106102df57600080fd5b90600052602060002090600402016000915090508060000154908060010154908060020160009054906101000a900473ffffffffffffffffffffffffffffffffffffffff169080600301805461033490611181565b80601f016020809104026020016040519081016040528092919081815260200182805461036090611181565b80156103ad5780601f10610382576101008083540402835291602001916103ad565b820191906000526020600020905b81548152906001019060200180831161039057829003601f168201915b5050505050905084565b60015481565b60035481565b60008054906101000a900473ffffffffffffffffffffffffffffffffffffffff1681565b60606009805480602002602001604051908101604052809291908181526020016000905b82821015610539578382906000526020600020906004020160405180608001604052908160008201548152602001600182015481526020016002820160009054906101000a900473ffffffffffffffffffffffffffffffffffffffff1673ffffffffffffffffffffffffffffffffffffffff1673ffffffffffffffffffffffffffffffffffffffff1681526020016003820180546104a890611181565b80601f01602080910402602001604051908101604052809291908181526020018280546104d490611181565b80156105215780601f106104f657610100808354040283529160200191610521565b820191906000526020600020905b81548152906001019060200180831161050457829003601f168201915b5050505050815250508152602001906001019061040b565b50505050905090565b60008060008060008060608060008054906101000a900473ffffffffffffffffffffffffffffffffffffffff166001546002546003546004546005546006600781805461058e90611181565b80601f01602080910402602001604051908101604052809291908181526020018280546105ba90611181565b80156106075780601f106105dc57610100808354040283529160200191610607565b820191906000526020600020905b8154815290600101906020018083116105ea57829003601f168201915b5050505050915080805461061a90611181565b80601f016020809104026020016040519081016040528092919081815260200182805461064690611181565b80156106935780601f1061066857610100808354040283529160200191610693565b820191906000526020600020905b81548152906001019060200180831161067657829003601f168201915b50505050509050975097509750975097509750975097509091929394959697565b60025481565b60055481565b60025460015410610706576040517f08c379a00000000000000000000000000000000000000000000000000000000081526004016106fd90610f80565b60405180910390fd5b600454421061074a576040517f08c379a000000000000000000000000000000000000000000000000000000000815260040161074190610f60565b60405180910390fd5b60035442101561078f576040517f08c379a000000000000000000000000000000000000000000000000000000000815260040161078690610fa0565b60405180910390fd5b600554600860003373ffffffffffffffffffffffffffffffffffffffff1673ffffffffffffffffffffffffffffffffffffffff1681526020019081526020016000206001015410610815576040517f08c379a000000000000000000000000000000000000000000000000000000000815260040161080c90610fc0565b60405180910390fd5b61081d610a87565b6001548160000181815250504281602001818152505033816040019073ffffffffffffffffffffffffffffffffffffffff16908173ffffffffffffffffffffffffffffffffffffffff16815250508181606001819052506009819080600181540180825580915050600190039060005260206000209060040201600090919091909150600082015181600001556020820151816001015560408201518160020160006101000a81548173ffffffffffffffffffffffffffffffffffffffff021916908373ffffffffffffffffffffffffffffffffffffffff1602179055506060820151816003019080519060200190610917929190610ac5565b505050600860003373ffffffffffffffffffffffffffffffffffffffff1673ffffffffffffffffffffffffffffffffffffffff1681526020019081526020016000206000016001549080600181540180825580915050600190039060005260206000200160009091909190915055600860003373ffffffffffffffffffffffffffffffffffffffff1673ffffffffffffffffffffffffffffffffffffffff16815260200190815260200160002060010160008154809291906109d8906111e4565b9190505550600160008154809291906109f0906111e4565b91905055505050565b60068054610a0690611181565b80601f0160208091040260200160405190810160405280929190818152602001828054610a3290611181565b8015610a7f5780601f10610a5457610100808354040283529160200191610a7f565b820191906000526020600020905b815481529060010190602001808311610a6257829003601f168201915b505050505081565b60405180608001604052806000815260200160008152602001600073ffffffffffffffffffffffffffffffffffffffff168152602001606081525090565b828054610ad190611181565b90600052602060002090601f016020900481019282610af35760008555610b3a565b82601f10610b0c57805160ff1916838001178555610b3a565b82800160010185558215610b3a579182015b82811115610b39578251825591602001919060010190610b1e565b5b509050610b479190610b4b565b5090565b5b80821115610b64576000816000905550600101610b4c565b5090565b6000610b7b610b768461106c565b611047565b905082815260208101848484011115610b9357600080fd5b610b9e84828561113f565b509392505050565b600082601f830112610bb757600080fd5b8135610bc7848260208601610b68565b91505092915050565b600081359050610bdf81611395565b92915050565b600060208284031215610bf757600080fd5b600082013567ffffffffffffffff811115610c1157600080fd5b610c1d84828501610ba6565b91505092915050565b600060208284031215610c3857600080fd5b6000610c4684828501610bd0565b91505092915050565b6000610c5b8383610df4565b905092915050565b610c6c81611103565b82525050565b610c7b81611103565b82525050565b6000610c8c826110ad565b610c9681856110d0565b935083602082028501610ca88561109d565b8060005b85811015610ce45784840389528151610cc58582610c4f565b9450610cd0836110c3565b925060208a01995050600181019050610cac565b50829750879550505050505092915050565b6000610d01826110b8565b610d0b81856110e1565b9350610d1b81856020860161114e565b610d24816112ba565b840191505092915050565b6000610d3a826110b8565b610d4481856110f2565b9350610d5481856020860161114e565b610d5d816112ba565b840191505092915050565b6000610d756011836110f2565b9150610d80826112cb565b602082019050919050565b6000610d98601b836110f2565b9150610da3826112f4565b602082019050919050565b6000610dbb6018836110f2565b9150610dc68261131d565b602082019050919050565b6000610dde6021836110f2565b9150610de982611346565b604082019050919050565b6000608083016000830151610e0c6000860182610e57565b506020830151610e1f6020860182610e57565b506040830151610e326040860182610c63565b5060608301518482036060860152610e4a8282610cf6565b9150508091505092915050565b610e6081611135565b82525050565b610e6f81611135565b82525050565b6000602082019050610e8a6000830184610c72565b92915050565b600061010082019050610ea6600083018b610c72565b610eb3602083018a610e66565b610ec06040830189610e66565b610ecd6060830188610e66565b610eda6080830187610e66565b610ee760a0830186610e66565b81810360c0830152610ef98185610d2f565b905081810360e0830152610f0d8184610d2f565b90509998505050505050505050565b60006020820190508181036000830152610f368184610c81565b905092915050565b60006020820190508181036000830152610f588184610d2f565b905092915050565b60006020820190508181036000830152610f7981610d68565b9050919050565b60006020820190508181036000830152610f9981610d8b565b9050919050565b60006020820190508181036000830152610fb981610dae565b9050919050565b60006020820190508181036000830152610fd981610dd1565b9050919050565b6000602082019050610ff56000830184610e66565b92915050565b60006080820190506110106000830187610e66565b61101d6020830186610e66565b61102a6040830185610c72565b818103606083015261103c8184610d2f565b905095945050505050565b6000611051611062565b905061105d82826111b3565b919050565b6000604051905090565b600067ffffffffffffffff8211156110875761108661128b565b5b611090826112ba565b9050602081019050919050565b6000819050602082019050919050565b600081519050919050565b600081519050919050565b6000602082019050919050565b600082825260208201905092915050565b600082825260208201905092915050565b600082825260208201905092915050565b600061110e82611115565b9050919050565b600073ffffffffffffffffffffffffffffffffffffffff82169050919050565b6000819050919050565b82818337600083830152505050565b60005b8381101561116c578082015181840152602081019050611151565b8381111561117b576000848401525b50505050565b6000600282049050600182168061119957607f821691505b602082108114156111ad576111ac61125c565b5b50919050565b6111bc826112ba565b810181811067ffffffffffffffff821117156111db576111da61128b565b5b80604052505050565b60006111ef82611135565b91507fffffffffffffffffffffffffffffffffffffffffffffffffffffffffffffffff8214156112225761122161122d565b5b600182019050919050565b7f4e487b7100000000000000000000000000000000000000000000000000000000600052601160045260246000fd5b7f4e487b7100000000000000000000000000000000000000000000000000000000600052602260045260246000fd5b7f4e487b7100000000000000000000000000000000000000000000000000000000600052604160045260246000fd5b6000601f19601f8301169050919050565b7f466f726d20686173206578706972656421000000000000000000000000000000600082015250565b7f466f726d206861732072656163686564206d61782066696c6c73210000000000600082015250565b7f466f726d206861736e2774207374617274656420796574210000000000000000600082015250565b7f596f752063616e6e6f742066696c6c20616e79206d6f726520656e747269657360008201527f2100000000000000000000000000000000000000000000000000000000000000602082015250565b61139e81611135565b81146113a957600080fd5b5056fea2646970667358221220f6835939e4d0412bf51ffcf057328a51f7b1dddbbeb3f1cb5f581be024ca068164736f6c63430008040033",
	"linkReferences": {},
	"deployedLinkReferences": {}
}