{
  "_format": "hh-sol-artifact-1",
  "contractName": "Formsify",
  "sourceName": "contracts/Formsify.sol",
  "abi": [
    {
      "inputs": [
        {
          "internalType": "uint256",
          "name": "_maxFills",
          "type": "uint256"
        },
        {
          "internalType": "uint256",
          "name": "_startTime",
          "type": "uint256"
        },
        {
          "internalType": "uint256",
          "name": "_endTime",
          "type": "uint256"
        },
        {
          "internalType": "uint256",
          "name": "_allowedTotalFills",
          "type": "uint256"
        },
        {
          "internalType": "string",
          "name": "_publicKey",
          "type": "string"
        },
        {
          "internalType": "string",
          "name": "_formHead",
          "type": "string"
        },
        {
          "internalType": "string",
          "name": "_fields",
          "type": "string"
        }
      ],
      "stateMutability": "nonpayable",
      "type": "constructor"
    },
    {
      "inputs": [
        {
          "internalType": "string",
          "name": "_fillData",
          "type": "string"
        }
      ],
      "name": "addRecord",
      "outputs": [],
      "stateMutability": "nonpayable",
      "type": "function"
    },
    {
      "inputs": [],
      "name": "allowedTotalFills",
      "outputs": [
        {
          "internalType": "uint256",
          "name": "",
          "type": "uint256"
        }
      ],
      "stateMutability": "view",
      "type": "function"
    },
    {
      "inputs": [],
      "name": "endTime",
      "outputs": [
        {
          "internalType": "uint256",
          "name": "",
          "type": "uint256"
        }
      ],
      "stateMutability": "view",
      "type": "function"
    },
    {
      "inputs": [],
      "name": "fields",
      "outputs": [
        {
          "internalType": "string",
          "name": "",
          "type": "string"
        }
      ],
      "stateMutability": "view",
      "type": "function"
    },
    {
      "inputs": [],
      "name": "fills",
      "outputs": [
        {
          "internalType": "uint256",
          "name": "",
          "type": "uint256"
        }
      ],
      "stateMutability": "view",
      "type": "function"
    },
    {
      "inputs": [],
      "name": "formHead",
      "outputs": [
        {
          "internalType": "string",
          "name": "",
          "type": "string"
        }
      ],
      "stateMutability": "view",
      "type": "function"
    },
    {
      "inputs": [],
      "name": "getParameters",
      "outputs": [
        {
          "internalType": "address",
          "name": "",
          "type": "address"
        },
        {
          "internalType": "uint256",
          "name": "",
          "type": "uint256"
        },
        {
          "internalType": "uint256",
          "name": "",
          "type": "uint256"
        },
        {
          "internalType": "uint256",
          "name": "",
          "type": "uint256"
        },
        {
          "internalType": "uint256",
          "name": "",
          "type": "uint256"
        },
        {
          "internalType": "uint256",
          "name": "",
          "type": "uint256"
        },
        {
          "internalType": "string",
          "name": "",
          "type": "string"
        },
        {
          "internalType": "string",
          "name": "",
          "type": "string"
        },
        {
          "internalType": "string",
          "name": "",
          "type": "string"
        }
      ],
      "stateMutability": "view",
      "type": "function"
    },
    {
      "inputs": [],
      "name": "getRecords",
      "outputs": [
        {
          "components": [
            {
              "internalType": "uint256",
              "name": "fillId",
              "type": "uint256"
            },
            {
              "internalType": "uint256",
              "name": "fillTimestamp",
              "type": "uint256"
            },
            {
              "internalType": "address",
              "name": "fillAddress",
              "type": "address"
            },
            {
              "internalType": "string",
              "name": "fillData",
              "type": "string"
            }
          ],
          "internalType": "struct Formsify.record[]",
          "name": "",
          "type": "tuple[]"
        }
      ],
      "stateMutability": "view",
      "type": "function"
    },
    {
      "inputs": [],
      "name": "maxFills",
      "outputs": [
        {
          "internalType": "uint256",
          "name": "",
          "type": "uint256"
        }
      ],
      "stateMutability": "view",
      "type": "function"
    },
    {
      "inputs": [],
      "name": "owner",
      "outputs": [
        {
          "internalType": "address",
          "name": "",
          "type": "address"
        }
      ],
      "stateMutability": "view",
      "type": "function"
    },
    {
      "inputs": [],
      "name": "publicKey",
      "outputs": [
        {
          "internalType": "string",
          "name": "",
          "type": "string"
        }
      ],
      "stateMutability": "view",
      "type": "function"
    },
    {
      "inputs": [
        {
          "internalType": "uint256",
          "name": "",
          "type": "uint256"
        }
      ],
      "name": "records",
      "outputs": [
        {
          "internalType": "uint256",
          "name": "fillId",
          "type": "uint256"
        },
        {
          "internalType": "uint256",
          "name": "fillTimestamp",
          "type": "uint256"
        },
        {
          "internalType": "address",
          "name": "fillAddress",
          "type": "address"
        },
        {
          "internalType": "string",
          "name": "fillData",
          "type": "string"
        }
      ],
      "stateMutability": "view",
      "type": "function"
    },
    {
      "inputs": [],
      "name": "startTime",
      "outputs": [
        {
          "internalType": "uint256",
          "name": "",
          "type": "uint256"
        }
      ],
      "stateMutability": "view",
      "type": "function"
    }
  ],
  "bytecode": "0x60806040523480156200001157600080fd5b5060405162001a1b38038062001a1b83398181016040528101906200003791906200022c565b336000806101000a81548173ffffffffffffffffffffffffffffffffffffffff021916908373ffffffffffffffffffffffffffffffffffffffff1602179055506000600181905550866002819055508560038190555084600481905550836005819055508260069080519060200190620000b3929190620000f3565b508160079080519060200190620000cc929190620000f3565b508060089080519060200190620000e5929190620000f3565b5050505050505050620004b8565b8280546200010190620003c3565b90600052602060002090601f01602090048101928262000125576000855562000171565b82601f106200014057805160ff191683800117855562000171565b8280016001018555821562000171579182015b828111156200017057825182559160200191906001019062000153565b5b50905062000180919062000184565b5090565b5b808211156200019f57600081600090555060010162000185565b5090565b6000620001ba620001b4846200034d565b62000324565b905082815260208101848484011115620001d357600080fd5b620001e08482856200038d565b509392505050565b600082601f830112620001fa57600080fd5b81516200020c848260208601620001a3565b91505092915050565b60008151905062000226816200049e565b92915050565b600080600080600080600060e0888a0312156200024857600080fd5b6000620002588a828b0162000215565b97505060206200026b8a828b0162000215565b96505060406200027e8a828b0162000215565b9550506060620002918a828b0162000215565b945050608088015167ffffffffffffffff811115620002af57600080fd5b620002bd8a828b01620001e8565b93505060a088015167ffffffffffffffff811115620002db57600080fd5b620002e98a828b01620001e8565b92505060c088015167ffffffffffffffff8111156200030757600080fd5b620003158a828b01620001e8565b91505092959891949750929550565b60006200033062000343565b90506200033e8282620003f9565b919050565b6000604051905090565b600067ffffffffffffffff8211156200036b576200036a6200045e565b5b62000376826200048d565b9050602081019050919050565b6000819050919050565b60005b83811015620003ad57808201518184015260208101905062000390565b83811115620003bd576000848401525b50505050565b60006002820490506001821680620003dc57607f821691505b60208210811415620003f357620003f26200042f565b5b50919050565b62000404826200048d565b810181811067ffffffffffffffff821117156200042657620004256200045e565b5b80604052505050565b7f4e487b7100000000000000000000000000000000000000000000000000000000600052602260045260246000fd5b7f4e487b7100000000000000000000000000000000000000000000000000000000600052604160045260246000fd5b6000601f19601f8301169050919050565b620004a98162000383565b8114620004b557600080fd5b50565b61155380620004c86000396000f3fe608060405234801561001057600080fd5b50600436106100cf5760003560e01c80638da5cb5b1161008c578063ba73ade211610066578063ba73ade2146101ff578063d6a4c1691461021d578063d81aa8c41461023b578063edd5b0f714610257576100cf565b80638da5cb5b1461019d5780638eff3c29146101bb578063a5ea11da146101d9576100cf565b806329c3a6d0146100d45780633197cbb6146100f2578063344610671461011057806363ffab31146101435780636be695491461016157806378e979251461017f575b600080fd5b6100dc610275565b6040516100e991906110af565b60405180910390f35b6100fa610303565b6040516101079190611151565b60405180910390f35b61012a60048036038101906101259190610d81565b610309565b60405161013a949392919061116c565b60405180910390f35b61014b6103f1565b60405161015891906110af565b60405180910390f35b61016961047f565b6040516101769190611151565b60405180910390f35b610187610485565b6040516101949190611151565b60405180910390f35b6101a561048b565b6040516101b29190610fd0565b60405180910390f35b6101c36104af565b6040516101d0919061108d565b60405180910390f35b6101e161060a565b6040516101f699989796959493929190610feb565b60405180910390f35b61020761080f565b6040516102149190611151565b60405180910390f35b610225610815565b6040516102329190611151565b60405180910390f35b61025560048036038101906102509190610d40565b61081b565b005b61025f610b54565b60405161026c91906110af565b60405180910390f35b60088054610282906112f2565b80601f01602080910402602001604051908101604052809291908181526020018280546102ae906112f2565b80156102fb5780601f106102d0576101008083540402835291602001916102fb565b820191906000526020600020905b8154815290600101906020018083116102de57829003601f168201915b505050505081565b60045481565b600a818154811061031957600080fd5b90600052602060002090600402016000915090508060000154908060010154908060020160009054906101000a900473ffffffffffffffffffffffffffffffffffffffff169080600301805461036e906112f2565b80601f016020809104026020016040519081016040528092919081815260200182805461039a906112f2565b80156103e75780601f106103bc576101008083540402835291602001916103e7565b820191906000526020600020905b8154815290600101906020018083116103ca57829003601f168201915b5050505050905084565b600680546103fe906112f2565b80601f016020809104026020016040519081016040528092919081815260200182805461042a906112f2565b80156104775780601f1061044c57610100808354040283529160200191610477565b820191906000526020600020905b81548152906001019060200180831161045a57829003601f168201915b505050505081565b60015481565b60035481565b60008054906101000a900473ffffffffffffffffffffffffffffffffffffffff1681565b6060600a805480602002602001604051908101604052809291908181526020016000905b82821015610601578382906000526020600020906004020160405180608001604052908160008201548152602001600182015481526020016002820160009054906101000a900473ffffffffffffffffffffffffffffffffffffffff1673ffffffffffffffffffffffffffffffffffffffff1673ffffffffffffffffffffffffffffffffffffffff168152602001600382018054610570906112f2565b80601f016020809104026020016040519081016040528092919081815260200182805461059c906112f2565b80156105e95780601f106105be576101008083540402835291602001916105e9565b820191906000526020600020905b8154815290600101906020018083116105cc57829003601f168201915b505050505081525050815260200190600101906104d3565b50505050905090565b600080600080600080606080606060008054906101000a900473ffffffffffffffffffffffffffffffffffffffff1660015460025460035460045460055460066007600882805461065a906112f2565b80601f0160208091040260200160405190810160405280929190818152602001828054610686906112f2565b80156106d35780601f106106a8576101008083540402835291602001916106d3565b820191906000526020600020905b8154815290600101906020018083116106b657829003601f168201915b505050505092508180546106e6906112f2565b80601f0160208091040260200160405190810160405280929190818152602001828054610712906112f2565b801561075f5780601f106107345761010080835404028352916020019161075f565b820191906000526020600020905b81548152906001019060200180831161074257829003601f168201915b50505050509150808054610772906112f2565b80601f016020809104026020016040519081016040528092919081815260200182805461079e906112f2565b80156107eb5780601f106107c0576101008083540402835291602001916107eb565b820191906000526020600020905b8154815290600101906020018083116107ce57829003601f168201915b50505050509050985098509850985098509850985098509850909192939495969798565b60025481565b60055481565b60025460015410610861576040517f08c379a0000000000000000000000000000000000000000000000000000000008152600401610858906110f1565b60405180910390fd5b60045442106108a5576040517f08c379a000000000000000000000000000000000000000000000000000000000815260040161089c906110d1565b60405180910390fd5b6003544210156108ea576040517f08c379a00000000000000000000000000000000000000000000000000000000081526004016108e190611111565b60405180910390fd5b600554600960003373ffffffffffffffffffffffffffffffffffffffff1673ffffffffffffffffffffffffffffffffffffffff1681526020019081526020016000206001015410610970576040517f08c379a000000000000000000000000000000000000000000000000000000000815260040161096790611131565b60405180910390fd5b610978610be2565b6001548160000181815250504281602001818152505033816040019073ffffffffffffffffffffffffffffffffffffffff16908173ffffffffffffffffffffffffffffffffffffffff1681525050818160600181905250600a819080600181540180825580915050600190039060005260206000209060040201600090919091909150600082015181600001556020820151816001015560408201518160020160006101000a81548173ffffffffffffffffffffffffffffffffffffffff021916908373ffffffffffffffffffffffffffffffffffffffff1602179055506060820151816003019080519060200190610a72929190610c20565b505050600960003373ffffffffffffffffffffffffffffffffffffffff1673ffffffffffffffffffffffffffffffffffffffff1681526020019081526020016000206000016001549080600181540180825580915050600190039060005260206000200160009091909190915055600960003373ffffffffffffffffffffffffffffffffffffffff1673ffffffffffffffffffffffffffffffffffffffff1681526020019081526020016000206001016000815480929190610b3390611355565b919050555060016000815480929190610b4b90611355565b91905055505050565b60078054610b61906112f2565b80601f0160208091040260200160405190810160405280929190818152602001828054610b8d906112f2565b8015610bda5780601f10610baf57610100808354040283529160200191610bda565b820191906000526020600020905b815481529060010190602001808311610bbd57829003601f168201915b505050505081565b60405180608001604052806000815260200160008152602001600073ffffffffffffffffffffffffffffffffffffffff168152602001606081525090565b828054610c2c906112f2565b90600052602060002090601f016020900481019282610c4e5760008555610c95565b82601f10610c6757805160ff1916838001178555610c95565b82800160010185558215610c95579182015b82811115610c94578251825591602001919060010190610c79565b5b509050610ca29190610ca6565b5090565b5b80821115610cbf576000816000905550600101610ca7565b5090565b6000610cd6610cd1846111dd565b6111b8565b905082815260208101848484011115610cee57600080fd5b610cf98482856112b0565b509392505050565b600082601f830112610d1257600080fd5b8135610d22848260208601610cc3565b91505092915050565b600081359050610d3a81611506565b92915050565b600060208284031215610d5257600080fd5b600082013567ffffffffffffffff811115610d6c57600080fd5b610d7884828501610d01565b91505092915050565b600060208284031215610d9357600080fd5b6000610da184828501610d2b565b91505092915050565b6000610db68383610f4f565b905092915050565b610dc781611274565b82525050565b610dd681611274565b82525050565b6000610de78261121e565b610df18185611241565b935083602082028501610e038561120e565b8060005b85811015610e3f5784840389528151610e208582610daa565b9450610e2b83611234565b925060208a01995050600181019050610e07565b50829750879550505050505092915050565b6000610e5c82611229565b610e668185611252565b9350610e768185602086016112bf565b610e7f8161142b565b840191505092915050565b6000610e9582611229565b610e9f8185611263565b9350610eaf8185602086016112bf565b610eb88161142b565b840191505092915050565b6000610ed0601183611263565b9150610edb8261143c565b602082019050919050565b6000610ef3601b83611263565b9150610efe82611465565b602082019050919050565b6000610f16601883611263565b9150610f218261148e565b602082019050919050565b6000610f39602183611263565b9150610f44826114b7565b604082019050919050565b6000608083016000830151610f676000860182610fb2565b506020830151610f7a6020860182610fb2565b506040830151610f8d6040860182610dbe565b5060608301518482036060860152610fa58282610e51565b9150508091505092915050565b610fbb816112a6565b82525050565b610fca816112a6565b82525050565b6000602082019050610fe56000830184610dcd565b92915050565b600061012082019050611001600083018c610dcd565b61100e602083018b610fc1565b61101b604083018a610fc1565b6110286060830189610fc1565b6110356080830188610fc1565b61104260a0830187610fc1565b81810360c08301526110548186610e8a565b905081810360e08301526110688185610e8a565b905081810361010083015261107d8184610e8a565b90509a9950505050505050505050565b600060208201905081810360008301526110a78184610ddc565b905092915050565b600060208201905081810360008301526110c98184610e8a565b905092915050565b600060208201905081810360008301526110ea81610ec3565b9050919050565b6000602082019050818103600083015261110a81610ee6565b9050919050565b6000602082019050818103600083015261112a81610f09565b9050919050565b6000602082019050818103600083015261114a81610f2c565b9050919050565b60006020820190506111666000830184610fc1565b92915050565b60006080820190506111816000830187610fc1565b61118e6020830186610fc1565b61119b6040830185610dcd565b81810360608301526111ad8184610e8a565b905095945050505050565b60006111c26111d3565b90506111ce8282611324565b919050565b6000604051905090565b600067ffffffffffffffff8211156111f8576111f76113fc565b5b6112018261142b565b9050602081019050919050565b6000819050602082019050919050565b600081519050919050565b600081519050919050565b6000602082019050919050565b600082825260208201905092915050565b600082825260208201905092915050565b600082825260208201905092915050565b600061127f82611286565b9050919050565b600073ffffffffffffffffffffffffffffffffffffffff82169050919050565b6000819050919050565b82818337600083830152505050565b60005b838110156112dd5780820151818401526020810190506112c2565b838111156112ec576000848401525b50505050565b6000600282049050600182168061130a57607f821691505b6020821081141561131e5761131d6113cd565b5b50919050565b61132d8261142b565b810181811067ffffffffffffffff8211171561134c5761134b6113fc565b5b80604052505050565b6000611360826112a6565b91507fffffffffffffffffffffffffffffffffffffffffffffffffffffffffffffffff8214156113935761139261139e565b5b600182019050919050565b7f4e487b7100000000000000000000000000000000000000000000000000000000600052601160045260246000fd5b7f4e487b7100000000000000000000000000000000000000000000000000000000600052602260045260246000fd5b7f4e487b7100000000000000000000000000000000000000000000000000000000600052604160045260246000fd5b6000601f19601f8301169050919050565b7f466f726d20686173206578706972656421000000000000000000000000000000600082015250565b7f466f726d206861732072656163686564206d61782066696c6c73210000000000600082015250565b7f466f726d206861736e2774207374617274656420796574210000000000000000600082015250565b7f596f752063616e6e6f742066696c6c20616e79206d6f726520656e747269657360008201527f2100000000000000000000000000000000000000000000000000000000000000602082015250565b61150f816112a6565b811461151a57600080fd5b5056fea2646970667358221220a53daa8024bfff102450e61d5fa6d43bb75108d1552babb254672a3fda1f779464736f6c63430008040033",
  "linkReferences": {},
  "deployedLinkReferences": {}
}