{
  "_format": "hh-sol-artifact-1",
  "contractName": "Formsify",
  "sourceName": "contracts/Formsify.sol",
  "abi": [
    {
      "inputs": [
        {
          "internalType": "uint256",
          "name": "_maxFills",
          "type": "uint256"
        },
        {
          "internalType": "uint256",
          "name": "_startTime",
          "type": "uint256"
        },
        {
          "internalType": "uint256",
          "name": "_endTime",
          "type": "uint256"
        },
        {
          "internalType": "uint256",
          "name": "_allowedTotalFills",
          "type": "uint256"
        },
        {
          "internalType": "string",
          "name": "_publicKey",
          "type": "string"
        },
        {
          "internalType": "string",
          "name": "_formHead",
          "type": "string"
        },
        {
          "internalType": "string",
          "name": "_fields",
          "type": "string"
        }
      ],
      "stateMutability": "nonpayable",
      "type": "constructor"
    },
    {
      "inputs": [
        {
          "internalType": "string",
          "name": "_fillData",
          "type": "string"
        }
      ],
      "name": "addRecord",
      "outputs": [],
      "stateMutability": "nonpayable",
      "type": "function"
    },
    {
      "inputs": [],
      "name": "allowedTotalFills",
      "outputs": [
        {
          "internalType": "uint256",
          "name": "",
          "type": "uint256"
        }
      ],
      "stateMutability": "view",
      "type": "function"
    },
    {
      "inputs": [],
      "name": "endTime",
      "outputs": [
        {
          "internalType": "uint256",
          "name": "",
          "type": "uint256"
        }
      ],
      "stateMutability": "view",
      "type": "function"
    },
    {
      "inputs": [],
      "name": "fields",
      "outputs": [
        {
          "internalType": "string",
          "name": "",
          "type": "string"
        }
      ],
      "stateMutability": "view",
      "type": "function"
    },
    {
      "inputs": [],
      "name": "fills",
      "outputs": [
        {
          "internalType": "uint256",
          "name": "",
          "type": "uint256"
        }
      ],
      "stateMutability": "view",
      "type": "function"
    },
    {
      "inputs": [],
      "name": "formHead",
      "outputs": [
        {
          "internalType": "string",
          "name": "",
          "type": "string"
        }
      ],
      "stateMutability": "view",
      "type": "function"
    },
    {
      "inputs": [],
      "name": "getParameters",
      "outputs": [
        {
          "internalType": "address",
          "name": "",
          "type": "address"
        },
        {
          "internalType": "uint256",
          "name": "",
          "type": "uint256"
        },
        {
          "internalType": "uint256",
          "name": "",
          "type": "uint256"
        },
        {
          "internalType": "uint256",
          "name": "",
          "type": "uint256"
        },
        {
          "internalType": "uint256",
          "name": "",
          "type": "uint256"
        },
        {
          "internalType": "uint256",
          "name": "",
          "type": "uint256"
        },
        {
          "internalType": "string",
          "name": "",
          "type": "string"
        },
        {
          "internalType": "string",
          "name": "",
          "type": "string"
        },
        {
          "internalType": "string",
          "name": "",
          "type": "string"
        }
      ],
      "stateMutability": "view",
      "type": "function"
    },
    {
      "inputs": [],
      "name": "getRecords",
      "outputs": [
        {
          "components": [
            {
              "internalType": "uint256",
              "name": "fillId",
              "type": "uint256"
            },
            {
              "internalType": "uint256",
              "name": "fillTimestamp",
              "type": "uint256"
            },
            {
              "internalType": "address",
              "name": "fillAddress",
              "type": "address"
            },
            {
              "internalType": "string",
              "name": "fillData",
              "type": "string"
            }
          ],
          "internalType": "struct Formsify.record[]",
          "name": "",
          "type": "tuple[]"
        }
      ],
      "stateMutability": "view",
      "type": "function"
    },
    {
      "inputs": [],
      "name": "maxFills",
      "outputs": [
        {
          "internalType": "uint256",
          "name": "",
          "type": "uint256"
        }
      ],
      "stateMutability": "view",
      "type": "function"
    },
    {
      "inputs": [],
      "name": "owner",
      "outputs": [
        {
          "internalType": "address",
          "name": "",
          "type": "address"
        }
      ],
      "stateMutability": "view",
      "type": "function"
    },
    {
      "inputs": [],
      "name": "publicKey",
      "outputs": [
        {
          "internalType": "string",
          "name": "",
          "type": "string"
        }
      ],
      "stateMutability": "view",
      "type": "function"
    },
    {
      "inputs": [
        {
          "internalType": "uint256",
          "name": "",
          "type": "uint256"
        }
      ],
      "name": "records",
      "outputs": [
        {
          "internalType": "uint256",
          "name": "fillId",
          "type": "uint256"
        },
        {
          "internalType": "uint256",
          "name": "fillTimestamp",
          "type": "uint256"
        },
        {
          "internalType": "address",
          "name": "fillAddress",
          "type": "address"
        },
        {
          "internalType": "string",
          "name": "fillData",
          "type": "string"
        }
      ],
      "stateMutability": "view",
      "type": "function"
    },
    {
      "inputs": [],
      "name": "startTime",
      "outputs": [
        {
          "internalType": "uint256",
          "name": "",
          "type": "uint256"
        }
      ],
      "stateMutability": "view",
      "type": "function"
    }
  ],
  "bytecode": "0x60806040523480156200001157600080fd5b506040516200196a3803806200196a83398181016040528101906200003791906200022c565b336000806101000a81548173ffffffffffffffffffffffffffffffffffffffff021916908373ffffffffffffffffffffffffffffffffffffffff1602179055506000600181905550866002819055508560038190555084600481905550836005819055508260069080519060200190620000b3929190620000f3565b508160079080519060200190620000cc929190620000f3565b508060089080519060200190620000e5929190620000f3565b5050505050505050620004b8565b8280546200010190620003c3565b90600052602060002090601f01602090048101928262000125576000855562000171565b82601f106200014057805160ff191683800117855562000171565b8280016001018555821562000171579182015b828111156200017057825182559160200191906001019062000153565b5b50905062000180919062000184565b5090565b5b808211156200019f57600081600090555060010162000185565b5090565b6000620001ba620001b4846200034d565b62000324565b905082815260208101848484011115620001d357600080fd5b620001e08482856200038d565b509392505050565b600082601f830112620001fa57600080fd5b81516200020c848260208601620001a3565b91505092915050565b60008151905062000226816200049e565b92915050565b600080600080600080600060e0888a0312156200024857600080fd5b6000620002588a828b0162000215565b97505060206200026b8a828b0162000215565b96505060406200027e8a828b0162000215565b9550506060620002918a828b0162000215565b945050608088015167ffffffffffffffff811115620002af57600080fd5b620002bd8a828b01620001e8565b93505060a088015167ffffffffffffffff811115620002db57600080fd5b620002e98a828b01620001e8565b92505060c088015167ffffffffffffffff8111156200030757600080fd5b620003158a828b01620001e8565b91505092959891949750929550565b60006200033062000343565b90506200033e8282620003f9565b919050565b6000604051905090565b600067ffffffffffffffff8211156200036b576200036a6200045e565b5b62000376826200048d565b9050602081019050919050565b6000819050919050565b60005b83811015620003ad57808201518184015260208101905062000390565b83811115620003bd576000848401525b50505050565b60006002820490506001821680620003dc57607f821691505b60208210811415620003f357620003f26200042f565b5b50919050565b62000404826200048d565b810181811067ffffffffffffffff821117156200042657620004256200045e565b5b80604052505050565b7f4e487b7100000000000000000000000000000000000000000000000000000000600052602260045260246000fd5b7f4e487b7100000000000000000000000000000000000000000000000000000000600052604160045260246000fd5b6000601f19601f8301169050919050565b620004a98162000383565b8114620004b557600080fd5b50565b6114a280620004c86000396000f3fe608060405234801561001057600080fd5b50600436106100cf5760003560e01c80638da5cb5b1161008c578063ba73ade211610066578063ba73ade2146101ff578063d6a4c1691461021d578063d81aa8c41461023b578063edd5b0f714610257576100cf565b80638da5cb5b1461019d5780638eff3c29146101bb578063a5ea11da146101d9576100cf565b806329c3a6d0146100d45780633197cbb6146100f2578063344610671461011057806363ffab31146101435780636be695491461016157806378e979251461017f575b600080fd5b6100dc610275565b6040516100e99190611047565b60405180910390f35b6100fa610303565b60405161010791906110c9565b60405180910390f35b61012a60048036038101906101259190610d3c565b610309565b60405161013a94939291906110e4565b60405180910390f35b61014b6103f1565b6040516101589190611047565b60405180910390f35b61016961047f565b60405161017691906110c9565b60405180910390f35b610187610485565b60405161019491906110c9565b60405180910390f35b6101a561048b565b6040516101b29190610f68565b60405180910390f35b6101c36104af565b6040516101d09190611025565b60405180910390f35b6101e161060a565b6040516101f699989796959493929190610f83565b60405180910390f35b61020761080f565b60405161021491906110c9565b60405180910390f35b610225610815565b60405161023291906110c9565b60405180910390f35b61025560048036038101906102509190610cfb565b61081b565b005b61025f610b0f565b60405161026c9190611047565b60405180910390f35b600880546102829061126a565b80601f01602080910402602001604051908101604052809291908181526020018280546102ae9061126a565b80156102fb5780601f106102d0576101008083540402835291602001916102fb565b820191906000526020600020905b8154815290600101906020018083116102de57829003601f168201915b505050505081565b60045481565b600a818154811061031957600080fd5b90600052602060002090600402016000915090508060000154908060010154908060020160009054906101000a900473ffffffffffffffffffffffffffffffffffffffff169080600301805461036e9061126a565b80601f016020809104026020016040519081016040528092919081815260200182805461039a9061126a565b80156103e75780601f106103bc576101008083540402835291602001916103e7565b820191906000526020600020905b8154815290600101906020018083116103ca57829003601f168201915b5050505050905084565b600680546103fe9061126a565b80601f016020809104026020016040519081016040528092919081815260200182805461042a9061126a565b80156104775780601f1061044c57610100808354040283529160200191610477565b820191906000526020600020905b81548152906001019060200180831161045a57829003601f168201915b505050505081565b60015481565b60035481565b60008054906101000a900473ffffffffffffffffffffffffffffffffffffffff1681565b6060600a805480602002602001604051908101604052809291908181526020016000905b82821015610601578382906000526020600020906004020160405180608001604052908160008201548152602001600182015481526020016002820160009054906101000a900473ffffffffffffffffffffffffffffffffffffffff1673ffffffffffffffffffffffffffffffffffffffff1673ffffffffffffffffffffffffffffffffffffffff1681526020016003820180546105709061126a565b80601f016020809104026020016040519081016040528092919081815260200182805461059c9061126a565b80156105e95780601f106105be576101008083540402835291602001916105e9565b820191906000526020600020905b8154815290600101906020018083116105cc57829003601f168201915b505050505081525050815260200190600101906104d3565b50505050905090565b600080600080600080606080606060008054906101000a900473ffffffffffffffffffffffffffffffffffffffff1660015460025460035460045460055460066007600882805461065a9061126a565b80601f01602080910402602001604051908101604052809291908181526020018280546106869061126a565b80156106d35780601f106106a8576101008083540402835291602001916106d3565b820191906000526020600020905b8154815290600101906020018083116106b657829003601f168201915b505050505092508180546106e69061126a565b80601f01602080910402602001604051908101604052809291908181526020018280546107129061126a565b801561075f5780601f106107345761010080835404028352916020019161075f565b820191906000526020600020905b81548152906001019060200180831161074257829003601f168201915b505050505091508080546107729061126a565b80601f016020809104026020016040519081016040528092919081815260200182805461079e9061126a565b80156107eb5780601f106107c0576101008083540402835291602001916107eb565b820191906000526020600020905b8154815290600101906020018083116107ce57829003601f168201915b50505050509050985098509850985098509850985098509850909192939495969798565b60025481565b60055481565b60025460015410610861576040517f08c379a000000000000000000000000000000000000000000000000000000000815260040161085890611089565b60405180910390fd5b60045442106108a5576040517f08c379a000000000000000000000000000000000000000000000000000000000815260040161089c90611069565b60405180910390fd5b600554600960003373ffffffffffffffffffffffffffffffffffffffff1673ffffffffffffffffffffffffffffffffffffffff168152602001908152602001600020600101541061092b576040517f08c379a0000000000000000000000000000000000000000000000000000000008152600401610922906110a9565b60405180910390fd5b610933610b9d565b6001548160000181815250504281602001818152505033816040019073ffffffffffffffffffffffffffffffffffffffff16908173ffffffffffffffffffffffffffffffffffffffff1681525050818160600181905250600a819080600181540180825580915050600190039060005260206000209060040201600090919091909150600082015181600001556020820151816001015560408201518160020160006101000a81548173ffffffffffffffffffffffffffffffffffffffff021916908373ffffffffffffffffffffffffffffffffffffffff1602179055506060820151816003019080519060200190610a2d929190610bdb565b505050600960003373ffffffffffffffffffffffffffffffffffffffff1673ffffffffffffffffffffffffffffffffffffffff1681526020019081526020016000206000016001549080600181540180825580915050600190039060005260206000200160009091909190915055600960003373ffffffffffffffffffffffffffffffffffffffff1673ffffffffffffffffffffffffffffffffffffffff1681526020019081526020016000206001016000815480929190610aee906112cd565b919050555060016000815480929190610b06906112cd565b91905055505050565b60078054610b1c9061126a565b80601f0160208091040260200160405190810160405280929190818152602001828054610b489061126a565b8015610b955780601f10610b6a57610100808354040283529160200191610b95565b820191906000526020600020905b815481529060010190602001808311610b7857829003601f168201915b505050505081565b60405180608001604052806000815260200160008152602001600073ffffffffffffffffffffffffffffffffffffffff168152602001606081525090565b828054610be79061126a565b90600052602060002090601f016020900481019282610c095760008555610c50565b82601f10610c2257805160ff1916838001178555610c50565b82800160010185558215610c50579182015b82811115610c4f578251825591602001919060010190610c34565b5b509050610c5d9190610c61565b5090565b5b80821115610c7a576000816000905550600101610c62565b5090565b6000610c91610c8c84611155565b611130565b905082815260208101848484011115610ca957600080fd5b610cb4848285611228565b509392505050565b600082601f830112610ccd57600080fd5b8135610cdd848260208601610c7e565b91505092915050565b600081359050610cf581611455565b92915050565b600060208284031215610d0d57600080fd5b600082013567ffffffffffffffff811115610d2757600080fd5b610d3384828501610cbc565b91505092915050565b600060208284031215610d4e57600080fd5b6000610d5c84828501610ce6565b91505092915050565b6000610d718383610ee7565b905092915050565b610d82816111ec565b82525050565b610d91816111ec565b82525050565b6000610da282611196565b610dac81856111b9565b935083602082028501610dbe85611186565b8060005b85811015610dfa5784840389528151610ddb8582610d65565b9450610de6836111ac565b925060208a01995050600181019050610dc2565b50829750879550505050505092915050565b6000610e17826111a1565b610e2181856111ca565b9350610e31818560208601611237565b610e3a816113a3565b840191505092915050565b6000610e50826111a1565b610e5a81856111db565b9350610e6a818560208601611237565b610e73816113a3565b840191505092915050565b6000610e8b6011836111db565b9150610e96826113b4565b602082019050919050565b6000610eae601b836111db565b9150610eb9826113dd565b602082019050919050565b6000610ed16021836111db565b9150610edc82611406565b604082019050919050565b6000608083016000830151610eff6000860182610f4a565b506020830151610f126020860182610f4a565b506040830151610f256040860182610d79565b5060608301518482036060860152610f3d8282610e0c565b9150508091505092915050565b610f538161121e565b82525050565b610f628161121e565b82525050565b6000602082019050610f7d6000830184610d88565b92915050565b600061012082019050610f99600083018c610d88565b610fa6602083018b610f59565b610fb3604083018a610f59565b610fc06060830189610f59565b610fcd6080830188610f59565b610fda60a0830187610f59565b81810360c0830152610fec8186610e45565b905081810360e08301526110008185610e45565b90508181036101008301526110158184610e45565b90509a9950505050505050505050565b6000602082019050818103600083015261103f8184610d97565b905092915050565b600060208201905081810360008301526110618184610e45565b905092915050565b6000602082019050818103600083015261108281610e7e565b9050919050565b600060208201905081810360008301526110a281610ea1565b9050919050565b600060208201905081810360008301526110c281610ec4565b9050919050565b60006020820190506110de6000830184610f59565b92915050565b60006080820190506110f96000830187610f59565b6111066020830186610f59565b6111136040830185610d88565b81810360608301526111258184610e45565b905095945050505050565b600061113a61114b565b9050611146828261129c565b919050565b6000604051905090565b600067ffffffffffffffff8211156111705761116f611374565b5b611179826113a3565b9050602081019050919050565b6000819050602082019050919050565b600081519050919050565b600081519050919050565b6000602082019050919050565b600082825260208201905092915050565b600082825260208201905092915050565b600082825260208201905092915050565b60006111f7826111fe565b9050919050565b600073ffffffffffffffffffffffffffffffffffffffff82169050919050565b6000819050919050565b82818337600083830152505050565b60005b8381101561125557808201518184015260208101905061123a565b83811115611264576000848401525b50505050565b6000600282049050600182168061128257607f821691505b6020821081141561129657611295611345565b5b50919050565b6112a5826113a3565b810181811067ffffffffffffffff821117156112c4576112c3611374565b5b80604052505050565b60006112d88261121e565b91507fffffffffffffffffffffffffffffffffffffffffffffffffffffffffffffffff82141561130b5761130a611316565b5b600182019050919050565b7f4e487b7100000000000000000000000000000000000000000000000000000000600052601160045260246000fd5b7f4e487b7100000000000000000000000000000000000000000000000000000000600052602260045260246000fd5b7f4e487b7100000000000000000000000000000000000000000000000000000000600052604160045260246000fd5b6000601f19601f8301169050919050565b7f466f726d20686173206578706972656421000000000000000000000000000000600082015250565b7f466f726d206861732072656163686564206d61782066696c6c73210000000000600082015250565b7f596f752063616e6e6f742066696c6c20616e79206d6f726520656e747269657360008201527f2100000000000000000000000000000000000000000000000000000000000000602082015250565b61145e8161121e565b811461146957600080fd5b5056fea2646970667358221220dc76a1f55cb96863fd43790f676f11c3a4b0f3c5e958022517e75fabe7862f4064736f6c63430008040033",
  "linkReferences": {},
  "deployedLinkReferences": {}
}